{"contracts/Raffle.sol":{"Raffle":{"abi":[{"inputs":[{"internalType":"address","name":"vrfCoordinatorV2","type":"address"},{"internalType":"uint256","name":"entranceFee","type":"uint256"},{"internalType":"bytes32","name":"gasLane","type":"bytes32"},{"internalType":"uint64","name":"subscriptionId","type":"uint64"},{"internalType":"uint32","name":"callbackGasLimit","type":"uint32"},{"internalType":"uint256","name":"interval","type":"uint256"}],"stateMutability":"nonpayable","type":"constructor"},{"inputs":[{"internalType":"address","name":"have","type":"address"},{"internalType":"address","name":"want","type":"address"}],"name":"OnlyCoordinatorCanFulfill","type":"error"},{"inputs":[],"name":"Raffle__NotEnoughETHEntered","type":"error"},{"inputs":[],"name":"Raffle__NotOpen","type":"error"},{"inputs":[],"name":"Raffle__TransferFailed","type":"error"},{"inputs":[{"internalType":"uint256","name":"currentBalance","type":"uint256"},{"internalType":"uint256","name":"numPlayers","type":"uint256"},{"internalType":"uint256","name":"raffleState","type":"uint256"}],"name":"Raffle__UpkeepNotNeeded","type":"error"},{"anonymous":false,"inputs":[{"indexed":true,"internalType":"address","name":"player","type":"address"}],"name":"RaffleEnter","type":"event"},{"anonymous":false,"inputs":[{"indexed":true,"internalType":"uint256","name":"requestId","type":"uint256"}],"name":"RequestedRaffleWinner","type":"event"},{"anonymous":false,"inputs":[{"indexed":true,"internalType":"address","name":"winner","type":"address"}],"name":"WinnerPicked","type":"event"},{"inputs":[{"internalType":"bytes","name":"","type":"bytes"}],"name":"checkUpkeep","outputs":[{"internalType":"bool","name":"upkeepNeeded","type":"bool"},{"internalType":"bytes","name":"","type":"bytes"}],"stateMutability":"view","type":"function"},{"inputs":[],"name":"enterRaffle","outputs":[],"stateMutability":"payable","type":"function"},{"inputs":[],"name":"getEntranceFee","outputs":[{"internalType":"uint256","name":"","type":"uint256"}],"stateMutability":"view","type":"function"},{"inputs":[],"name":"getInterval","outputs":[{"internalType":"uint256","name":"","type":"uint256"}],"stateMutability":"view","type":"function"},{"inputs":[],"name":"getLastTimeStamp","outputs":[{"internalType":"uint256","name":"","type":"uint256"}],"stateMutability":"view","type":"function"},{"inputs":[],"name":"getNumWords","outputs":[{"internalType":"uint256","name":"","type":"uint256"}],"stateMutability":"pure","type":"function"},{"inputs":[],"name":"getNumberOfPlayers","outputs":[{"internalType":"uint256","name":"","type":"uint256"}],"stateMutability":"view","type":"function"},{"inputs":[{"internalType":"uint256","name":"index","type":"uint256"}],"name":"getPlayer","outputs":[{"internalType":"address","name":"","type":"address"}],"stateMutability":"view","type":"function"},{"inputs":[],"name":"getRaffleState","outputs":[{"internalType":"enum Raffle.RaffleState","name":"","type":"uint8"}],"stateMutability":"view","type":"function"},{"inputs":[],"name":"getRecentWinner","outputs":[{"internalType":"address","name":"","type":"address"}],"stateMutability":"view","type":"function"},{"inputs":[{"internalType":"bytes","name":"","type":"bytes"}],"name":"performUpkeep","outputs":[],"stateMutability":"nonpayable","type":"function"},{"inputs":[{"internalType":"uint256","name":"requestId","type":"uint256"},{"internalType":"uint256[]","name":"randomWords","type":"uint256[]"}],"name":"rawFulfillRandomWords","outputs":[],"stateMutability":"nonpayable","type":"function"}],"devdoc":{"kind":"dev","methods":{},"version":1},"evm":{"bytecode":{"linkReferences":{},"object":"6101606040523480156200001257600080fd5b50604051620017ed380380620017ed8339818101604052810190620000389190620001ad565b858073ffffffffffffffffffffffffffffffffffffffff1660808173ffffffffffffffffffffffffffffffffffffffff1660601b81525050508573ffffffffffffffffffffffffffffffffffffffff1660c08173ffffffffffffffffffffffffffffffffffffffff1660601b815250508460a081815250508360e081815250508267ffffffffffffffff166101008167ffffffffffffffff1660c01b815250508163ffffffff166101208163ffffffff1660e01b815250506000600160146101000a81548160ff02191690836001811115620001195762000118620002b5565b5b0217905550426002819055508061014081815250505050505050506200036b565b6000815190506200014b81620002e9565b92915050565b600081519050620001628162000303565b92915050565b60008151905062000179816200031d565b92915050565b600081519050620001908162000337565b92915050565b600081519050620001a78162000351565b92915050565b60008060008060008060c08789031215620001cd57620001cc620002e4565b5b6000620001dd89828a016200013a565b9650506020620001f089828a0162000168565b95505060406200020389828a0162000151565b94505060606200021689828a0162000196565b93505060806200022989828a016200017f565b92505060a06200023c89828a0162000168565b9150509295509295509295565b6000620002568262000267565b9050919050565b6000819050919050565b600073ffffffffffffffffffffffffffffffffffffffff82169050919050565b6000819050919050565b600063ffffffff82169050919050565b600067ffffffffffffffff82169050919050565b7f4e487b7100000000000000000000000000000000000000000000000000000000600052602160045260246000fd5b600080fd5b620002f48162000249565b81146200030057600080fd5b50565b6200030e816200025d565b81146200031a57600080fd5b50565b620003288162000287565b81146200033457600080fd5b50565b620003428162000291565b81146200034e57600080fd5b50565b6200035c81620002a1565b81146200036857600080fd5b50565b60805160601c60a05160c05160601c60e0516101005160c01c6101205160e01c61014051611406620003e7600039600081816107b3015261080e0152600061065c0152600061063901526000610618015260006105dc0152600081816102b4015261041e0152600081816102f1015261034501526114066000f3fe6080604052600436106100a75760003560e01c806353a2c19a1161006457806353a2c19a146101895780636e04ff0d146101b457806391ad27b4146101f2578063c1c244e81461021d578063e55ae4e814610248578063fd6673f514610285576100a7565b806309bc33a7146100ac578063115cbaf5146100d75780631fe543e3146101025780632cfcc5391461012b5780634585e33b14610135578063473f1ddc1461015e575b600080fd5b3480156100b857600080fd5b506100c16102b0565b6040516100ce919061100c565b60405180910390f35b3480156100e357600080fd5b506100ec6102d8565b6040516100f99190610ff1565b60405180910390f35b34801561010e57600080fd5b5061012960048036038101906101249190610de5565b6102ef565b005b6101336103af565b005b34801561014157600080fd5b5061015c60048036038101906101579190610cf5565b61051e565b005b34801561016a57600080fd5b50610173610724565b6040516101809190610f2a565b60405180910390f35b34801561019557600080fd5b5061019e61074e565b6040516101ab919061100c565b60405180910390f35b3480156101c057600080fd5b506101db60048036038101906101d69190610d42565b61075d565b6040516101e9929190610f6e565b60405180910390f35b3480156101fe57600080fd5b5061020761080a565b604051610214919061100c565b60405180910390f35b34801561022957600080fd5b50610232610832565b60405161023f919061100c565b60405180910390f35b34801561025457600080fd5b5061026f600480360381019061026a9190610d8b565b61083c565b60405161027c9190610f2a565b60405180910390f35b34801561029157600080fd5b5061029a610883565b6040516102a7919061100c565b60405180910390f35b60007f0000000000000000000000000000000000000000000000000000000000000000905090565b6000600160149054906101000a900460ff16905090565b7f000000000000000000000000000000000000000000000000000000000000000073ffffffffffffffffffffffffffffffffffffffff163373ffffffffffffffffffffffffffffffffffffffff16146103a157337f00000000000000000000000000000000000000000000000000000000000000006040517f1cf993f4000000000000000000000000000000000000000000000000000000008152600401610398929190610f45565b60405180910390fd5b6103ab828261088f565b5050565b600060018111156103c3576103c26112e6565b5b600160149054906101000a900460ff1660018111156103e5576103e46112e6565b5b1461041c576040517f1425571c00000000000000000000000000000000000000000000000000000000815260040160405180910390fd5b7f0000000000000000000000000000000000000000000000000000000000000000341015610476576040517fbd4e069500000000000000000000000000000000000000000000000000000000815260040160405180910390fd5b6000339080600181540180825580915050600190039060005260206000200160009091909190916101000a81548173ffffffffffffffffffffffffffffffffffffffff021916908373ffffffffffffffffffffffffffffffffffffffff1602179055503373ffffffffffffffffffffffffffffffffffffffff167f0805e1d667bddb8a95f0f09880cf94f403fb596ce79928d9f29b74203ba284d460405160405180910390a2565b60006105386040518060200160405280600081525061075d565b509050806105a75747600080549050600160149054906101000a900460ff166001811115610569576105686112e6565b5b6040517f584327aa00000000000000000000000000000000000000000000000000000000815260040161059e93929190611027565b60405180910390fd5b4260028190555060018060146101000a81548160ff021916908360018111156105d3576105d26112e6565b5b021790555060007f000000000000000000000000000000000000000000000000000000000000000073ffffffffffffffffffffffffffffffffffffffff16635d3b1d307f00000000000000000000000000000000000000000000000000000000000000007f000000000000000000000000000000000000000000000000000000000000000060037f000000000000000000000000000000000000000000000000000000000000000060016040518663ffffffff1660e01b815260040161069d959493929190610f9e565b602060405180830381600087803b1580156106b757600080fd5b505af11580156106cb573d6000803e3d6000fd5b505050506040513d601f19601f820116820180604052508101906106ef9190610db8565b9050807fcd6e45c8998311cab7e9d4385596cac867e20a0587194b954fa3a731c93ce78b60405160405180910390a250505050565b6000600160009054906101000a900473ffffffffffffffffffffffffffffffffffffffff16905090565b6000600163ffffffff16905090565b600060606000600160149054906101000a900460ff166001811115610785576107846112e6565b5b60006001811115610799576107986112e6565b5b1490506000806000805490501190506000804711905060007f0000000000000000000000000000000000000000000000000000000000000000600254426107e09190611107565b1190508380156107ed5750825b80156107f65750815b80156107ff5750805b955050505050915091565b60007f0000000000000000000000000000000000000000000000000000000000000000905090565b6000600254905090565b600080828154811061085157610850611315565b5b9060005260206000200160009054906101000a900473ffffffffffffffffffffffffffffffffffffffff169050919050565b60008080549050905090565b60008080549050826000815181106108aa576108a9611315565b5b60200260200101516108bc9190611257565b905060008082815481106108d3576108d2611315565b5b9060005260206000200160009054906101000a900473ffffffffffffffffffffffffffffffffffffffff16905080600160006101000a81548173ffffffffffffffffffffffffffffffffffffffff021916908373ffffffffffffffffffffffffffffffffffffffff1602179055506000600160146101000a81548160ff02191690836001811115610967576109666112e6565b5b0217905550600067ffffffffffffffff81111561098757610986611344565b5b6040519080825280602002602001820160405280156109b55781602001602082028036833780820191505090505b50600090805190602001906109cb929190610ac0565b504260028190555060008173ffffffffffffffffffffffffffffffffffffffff16476040516109f990610f15565b60006040518083038185875af1925050503d8060008114610a36576040519150601f19603f3d011682016040523d82523d6000602084013e610a3b565b606091505b5050905080610a76576040517fa1d04b3900000000000000000000000000000000000000000000000000000000815260040160405180910390fd5b8173ffffffffffffffffffffffffffffffffffffffff167f5b690ec4a06fe979403046eaeea5b3ce38524683c3001f662c8b5a829632f7df60405160405180910390a25050505050565b828054828255906000526020600020908101928215610b39579160200282015b82811115610b385782518260006101000a81548173ffffffffffffffffffffffffffffffffffffffff021916908373ffffffffffffffffffffffffffffffffffffffff16021790555091602001919060010190610ae0565b5b509050610b469190610b4a565b5090565b5b80821115610b63576000816000905550600101610b4b565b5090565b6000610b7a610b7584611083565b61105e565b90508083825260208201905082856020860282011115610b9d57610b9c61137d565b5b60005b85811015610bcd5781610bb38882610ccb565b845260208401935060208301925050600181019050610ba0565b5050509392505050565b6000610bea610be5846110af565b61105e565b905082815260208101848484011115610c0657610c05611382565b5b610c118482856111e4565b509392505050565b600082601f830112610c2e57610c2d611378565b5b8135610c3e848260208601610b67565b91505092915050565b60008083601f840112610c5d57610c5c611378565b5b8235905067ffffffffffffffff811115610c7a57610c79611373565b5b602083019150836001820283011115610c9657610c9561137d565b5b9250929050565b600082601f830112610cb257610cb1611378565b5b8135610cc2848260208601610bd7565b91505092915050565b600081359050610cda816113b9565b92915050565b600081519050610cef816113b9565b92915050565b60008060208385031215610d0c57610d0b61138c565b5b600083013567ffffffffffffffff811115610d2a57610d29611387565b5b610d3685828601610c47565b92509250509250929050565b600060208284031215610d5857610d5761138c565b5b600082013567ffffffffffffffff811115610d7657610d75611387565b5b610d8284828501610c9d565b91505092915050565b600060208284031215610da157610da061138c565b5b6000610daf84828501610ccb565b91505092915050565b600060208284031215610dce57610dcd61138c565b5b6000610ddc84828501610ce0565b91505092915050565b60008060408385031215610dfc57610dfb61138c565b5b6000610e0a85828601610ccb565b925050602083013567ffffffffffffffff811115610e2b57610e2a611387565b5b610e3785828601610c19565b9150509250929050565b610e4a8161113b565b82525050565b610e598161114d565b82525050565b610e6881611159565b82525050565b6000610e79826110e0565b610e8381856110eb565b9350610e938185602086016111f3565b610e9c81611391565b840191505092915050565b610eb0816111d2565b82525050565b6000610ec36000836110fc565b9150610ece826113a2565b600082019050919050565b610ee281611176565b82525050565b610ef1816111a4565b82525050565b610f00816111ae565b82525050565b610f0f816111be565b82525050565b6000610f2082610eb6565b9150819050919050565b6000602082019050610f3f6000830184610e41565b92915050565b6000604082019050610f5a6000830185610e41565b610f676020830184610e41565b9392505050565b6000604082019050610f836000830185610e50565b8181036020830152610f958184610e6e565b90509392505050565b600060a082019050610fb36000830188610e5f565b610fc06020830187610f06565b610fcd6040830186610ed9565b610fda6060830185610ef7565b610fe76080830184610ef7565b9695505050505050565b60006020820190506110066000830184610ea7565b92915050565b60006020820190506110216000830184610ee8565b92915050565b600060608201905061103c6000830186610ee8565b6110496020830185610ee8565b6110566040830184610ee8565b949350505050565b6000611068611079565b90506110748282611226565b919050565b6000604051905090565b600067ffffffffffffffff82111561109e5761109d611344565b5b602082029050602081019050919050565b600067ffffffffffffffff8211156110ca576110c9611344565b5b6110d382611391565b9050602081019050919050565b600081519050919050565b600082825260208201905092915050565b600081905092915050565b6000611112826111a4565b915061111d836111a4565b9250828210156111305761112f611288565b5b828203905092915050565b600061114682611184565b9050919050565b60008115159050919050565b6000819050919050565b6000819050611171826113a5565b919050565b600061ffff82169050919050565b600073ffffffffffffffffffffffffffffffffffffffff82169050919050565b6000819050919050565b600063ffffffff82169050919050565b600067ffffffffffffffff82169050919050565b60006111dd82611163565b9050919050565b82818337600083830152505050565b60005b838110156112115780820151818401526020810190506111f6565b83811115611220576000848401525b50505050565b61122f82611391565b810181811067ffffffffffffffff8211171561124e5761124d611344565b5b80604052505050565b6000611262826111a4565b915061126d836111a4565b92508261127d5761127c6112b7565b5b828206905092915050565b7f4e487b7100000000000000000000000000000000000000000000000000000000600052601160045260246000fd5b7f4e487b7100000000000000000000000000000000000000000000000000000000600052601260045260246000fd5b7f4e487b7100000000000000000000000000000000000000000000000000000000600052602160045260246000fd5b7f4e487b7100000000000000000000000000000000000000000000000000000000600052603260045260246000fd5b7f4e487b7100000000000000000000000000000000000000000000000000000000600052604160045260246000fd5b600080fd5b600080fd5b600080fd5b600080fd5b600080fd5b600080fd5b6000601f19601f8301169050919050565b50565b600281106113b6576113b56112e6565b5b50565b6113c2816111a4565b81146113cd57600080fd5b5056fea2646970667358221220e9222deca4f70049bdf1f5b529b11058274981fcfaa7666a8a90935aef6e9f0d64736f6c63430008070033","opcodes":"PUSH2 0x160 PUSH1 0x40 MSTORE CALLVALUE DUP1 ISZERO PUSH3 0x12 JUMPI PUSH1 0x0 DUP1 REVERT JUMPDEST POP PUSH1 0x40 MLOAD PUSH3 0x17ED CODESIZE SUB DUP1 PUSH3 0x17ED DUP4 CODECOPY DUP2 DUP2 ADD PUSH1 0x40 MSTORE DUP2 ADD SWAP1 PUSH3 0x38 SWAP2 SWAP1 PUSH3 0x1AD JUMP JUMPDEST DUP6 DUP1 PUSH20 0xFFFFFFFFFFFFFFFFFFFFFFFFFFFFFFFFFFFFFFFF AND PUSH1 0x80 DUP2 PUSH20 0xFFFFFFFFFFFFFFFFFFFFFFFFFFFFFFFFFFFFFFFF AND PUSH1 0x60 SHL DUP2 MSTORE POP POP POP DUP6 PUSH20 0xFFFFFFFFFFFFFFFFFFFFFFFFFFFFFFFFFFFFFFFF AND PUSH1 0xC0 DUP2 PUSH20 0xFFFFFFFFFFFFFFFFFFFFFFFFFFFFFFFFFFFFFFFF AND PUSH1 0x60 SHL DUP2 MSTORE POP POP DUP5 PUSH1 0xA0 DUP2 DUP2 MSTORE POP POP DUP4 PUSH1 0xE0 DUP2 DUP2 MSTORE POP POP DUP3 PUSH8 0xFFFFFFFFFFFFFFFF AND PUSH2 0x100 DUP2 PUSH8 0xFFFFFFFFFFFFFFFF AND PUSH1 0xC0 SHL DUP2 MSTORE POP POP DUP2 PUSH4 0xFFFFFFFF AND PUSH2 0x120 DUP2 PUSH4 0xFFFFFFFF AND PUSH1 0xE0 SHL DUP2 MSTORE POP POP PUSH1 0x0 PUSH1 0x1 PUSH1 0x14 PUSH2 0x100 EXP DUP2 SLOAD DUP2 PUSH1 0xFF MUL NOT AND SWAP1 DUP4 PUSH1 0x1 DUP2 GT ISZERO PUSH3 0x119 JUMPI PUSH3 0x118 PUSH3 0x2B5 JUMP JUMPDEST JUMPDEST MUL OR SWAP1 SSTORE POP TIMESTAMP PUSH1 0x2 DUP2 SWAP1 SSTORE POP DUP1 PUSH2 0x140 DUP2 DUP2 MSTORE POP POP POP POP POP POP POP POP PUSH3 0x36B JUMP JUMPDEST PUSH1 0x0 DUP2 MLOAD SWAP1 POP PUSH3 0x14B DUP2 PUSH3 0x2E9 JUMP JUMPDEST SWAP3 SWAP2 POP POP JUMP JUMPDEST PUSH1 0x0 DUP2 MLOAD SWAP1 POP PUSH3 0x162 DUP2 PUSH3 0x303 JUMP JUMPDEST SWAP3 SWAP2 POP POP JUMP JUMPDEST PUSH1 0x0 DUP2 MLOAD SWAP1 POP PUSH3 0x179 DUP2 PUSH3 0x31D JUMP JUMPDEST SWAP3 SWAP2 POP POP JUMP JUMPDEST PUSH1 0x0 DUP2 MLOAD SWAP1 POP PUSH3 0x190 DUP2 PUSH3 0x337 JUMP JUMPDEST SWAP3 SWAP2 POP POP JUMP JUMPDEST PUSH1 0x0 DUP2 MLOAD SWAP1 POP PUSH3 0x1A7 DUP2 PUSH3 0x351 JUMP JUMPDEST SWAP3 SWAP2 POP POP JUMP JUMPDEST PUSH1 0x0 DUP1 PUSH1 0x0 DUP1 PUSH1 0x0 DUP1 PUSH1 0xC0 DUP8 DUP10 SUB SLT ISZERO PUSH3 0x1CD JUMPI PUSH3 0x1CC PUSH3 0x2E4 JUMP JUMPDEST JUMPDEST PUSH1 0x0 PUSH3 0x1DD DUP10 DUP3 DUP11 ADD PUSH3 0x13A JUMP JUMPDEST SWAP7 POP POP PUSH1 0x20 PUSH3 0x1F0 DUP10 DUP3 DUP11 ADD PUSH3 0x168 JUMP JUMPDEST SWAP6 POP POP PUSH1 0x40 PUSH3 0x203 DUP10 DUP3 DUP11 ADD PUSH3 0x151 JUMP JUMPDEST SWAP5 POP POP PUSH1 0x60 PUSH3 0x216 DUP10 DUP3 DUP11 ADD PUSH3 0x196 JUMP JUMPDEST SWAP4 POP POP PUSH1 0x80 PUSH3 0x229 DUP10 DUP3 DUP11 ADD PUSH3 0x17F JUMP JUMPDEST SWAP3 POP POP PUSH1 0xA0 PUSH3 0x23C DUP10 DUP3 DUP11 ADD PUSH3 0x168 JUMP JUMPDEST SWAP2 POP POP SWAP3 SWAP6 POP SWAP3 SWAP6 POP SWAP3 SWAP6 JUMP JUMPDEST PUSH1 0x0 PUSH3 0x256 DUP3 PUSH3 0x267 JUMP JUMPDEST SWAP1 POP SWAP2 SWAP1 POP JUMP JUMPDEST PUSH1 0x0 DUP2 SWAP1 POP SWAP2 SWAP1 POP JUMP JUMPDEST PUSH1 0x0 PUSH20 0xFFFFFFFFFFFFFFFFFFFFFFFFFFFFFFFFFFFFFFFF DUP3 AND SWAP1 POP SWAP2 SWAP1 POP JUMP JUMPDEST PUSH1 0x0 DUP2 SWAP1 POP SWAP2 SWAP1 POP JUMP JUMPDEST PUSH1 0x0 PUSH4 0xFFFFFFFF DUP3 AND SWAP1 POP SWAP2 SWAP1 POP JUMP JUMPDEST PUSH1 0x0 PUSH8 0xFFFFFFFFFFFFFFFF DUP3 AND SWAP1 POP SWAP2 SWAP1 POP JUMP JUMPDEST PUSH32 0x4E487B7100000000000000000000000000000000000000000000000000000000 PUSH1 0x0 MSTORE PUSH1 0x21 PUSH1 0x4 MSTORE PUSH1 0x24 PUSH1 0x0 REVERT JUMPDEST PUSH1 0x0 DUP1 REVERT JUMPDEST PUSH3 0x2F4 DUP2 PUSH3 0x249 JUMP JUMPDEST DUP2 EQ PUSH3 0x300 JUMPI PUSH1 0x0 DUP1 REVERT JUMPDEST POP JUMP JUMPDEST PUSH3 0x30E DUP2 PUSH3 0x25D JUMP JUMPDEST DUP2 EQ PUSH3 0x31A JUMPI PUSH1 0x0 DUP1 REVERT JUMPDEST POP JUMP JUMPDEST PUSH3 0x328 DUP2 PUSH3 0x287 JUMP JUMPDEST DUP2 EQ PUSH3 0x334 JUMPI PUSH1 0x0 DUP1 REVERT JUMPDEST POP JUMP JUMPDEST PUSH3 0x342 DUP2 PUSH3 0x291 JUMP JUMPDEST DUP2 EQ PUSH3 0x34E JUMPI PUSH1 0x0 DUP1 REVERT JUMPDEST POP JUMP JUMPDEST PUSH3 0x35C DUP2 PUSH3 0x2A1 JUMP JUMPDEST DUP2 EQ PUSH3 0x368 JUMPI PUSH1 0x0 DUP1 REVERT JUMPDEST POP JUMP JUMPDEST PUSH1 0x80 MLOAD PUSH1 0x60 SHR PUSH1 0xA0 MLOAD PUSH1 0xC0 MLOAD PUSH1 0x60 SHR PUSH1 0xE0 MLOAD PUSH2 0x100 MLOAD PUSH1 0xC0 SHR PUSH2 0x120 MLOAD PUSH1 0xE0 SHR PUSH2 0x140 MLOAD PUSH2 0x1406 PUSH3 0x3E7 PUSH1 0x0 CODECOPY PUSH1 0x0 DUP2 DUP2 PUSH2 0x7B3 ADD MSTORE PUSH2 0x80E ADD MSTORE PUSH1 0x0 PUSH2 0x65C ADD MSTORE PUSH1 0x0 PUSH2 0x639 ADD MSTORE PUSH1 0x0 PUSH2 0x618 ADD MSTORE PUSH1 0x0 PUSH2 0x5DC ADD MSTORE PUSH1 0x0 DUP2 DUP2 PUSH2 0x2B4 ADD MSTORE PUSH2 0x41E ADD MSTORE PUSH1 0x0 DUP2 DUP2 PUSH2 0x2F1 ADD MSTORE PUSH2 0x345 ADD MSTORE PUSH2 0x1406 PUSH1 0x0 RETURN INVALID PUSH1 0x80 PUSH1 0x40 MSTORE PUSH1 0x4 CALLDATASIZE LT PUSH2 0xA7 JUMPI PUSH1 0x0 CALLDATALOAD PUSH1 0xE0 SHR DUP1 PUSH4 0x53A2C19A GT PUSH2 0x64 JUMPI DUP1 PUSH4 0x53A2C19A EQ PUSH2 0x189 JUMPI DUP1 PUSH4 0x6E04FF0D EQ PUSH2 0x1B4 JUMPI DUP1 PUSH4 0x91AD27B4 EQ PUSH2 0x1F2 JUMPI DUP1 PUSH4 0xC1C244E8 EQ PUSH2 0x21D JUMPI DUP1 PUSH4 0xE55AE4E8 EQ PUSH2 0x248 JUMPI DUP1 PUSH4 0xFD6673F5 EQ PUSH2 0x285 JUMPI PUSH2 0xA7 JUMP JUMPDEST DUP1 PUSH4 0x9BC33A7 EQ PUSH2 0xAC JUMPI DUP1 PUSH4 0x115CBAF5 EQ PUSH2 0xD7 JUMPI DUP1 PUSH4 0x1FE543E3 EQ PUSH2 0x102 JUMPI DUP1 PUSH4 0x2CFCC539 EQ PUSH2 0x12B JUMPI DUP1 PUSH4 0x4585E33B EQ PUSH2 0x135 JUMPI DUP1 PUSH4 0x473F1DDC EQ PUSH2 0x15E JUMPI JUMPDEST PUSH1 0x0 DUP1 REVERT JUMPDEST CALLVALUE DUP1 ISZERO PUSH2 0xB8 JUMPI PUSH1 0x0 DUP1 REVERT JUMPDEST POP PUSH2 0xC1 PUSH2 0x2B0 JUMP JUMPDEST PUSH1 0x40 MLOAD PUSH2 0xCE SWAP2 SWAP1 PUSH2 0x100C JUMP JUMPDEST PUSH1 0x40 MLOAD DUP1 SWAP2 SUB SWAP1 RETURN JUMPDEST CALLVALUE DUP1 ISZERO PUSH2 0xE3 JUMPI PUSH1 0x0 DUP1 REVERT JUMPDEST POP PUSH2 0xEC PUSH2 0x2D8 JUMP JUMPDEST PUSH1 0x40 MLOAD PUSH2 0xF9 SWAP2 SWAP1 PUSH2 0xFF1 JUMP JUMPDEST PUSH1 0x40 MLOAD DUP1 SWAP2 SUB SWAP1 RETURN JUMPDEST CALLVALUE DUP1 ISZERO PUSH2 0x10E JUMPI PUSH1 0x0 DUP1 REVERT JUMPDEST POP PUSH2 0x129 PUSH1 0x4 DUP1 CALLDATASIZE SUB DUP2 ADD SWAP1 PUSH2 0x124 SWAP2 SWAP1 PUSH2 0xDE5 JUMP JUMPDEST PUSH2 0x2EF JUMP JUMPDEST STOP JUMPDEST PUSH2 0x133 PUSH2 0x3AF JUMP JUMPDEST STOP JUMPDEST CALLVALUE DUP1 ISZERO PUSH2 0x141 JUMPI PUSH1 0x0 DUP1 REVERT JUMPDEST POP PUSH2 0x15C PUSH1 0x4 DUP1 CALLDATASIZE SUB DUP2 ADD SWAP1 PUSH2 0x157 SWAP2 SWAP1 PUSH2 0xCF5 JUMP JUMPDEST PUSH2 0x51E JUMP JUMPDEST STOP JUMPDEST CALLVALUE DUP1 ISZERO PUSH2 0x16A JUMPI PUSH1 0x0 DUP1 REVERT JUMPDEST POP PUSH2 0x173 PUSH2 0x724 JUMP JUMPDEST PUSH1 0x40 MLOAD PUSH2 0x180 SWAP2 SWAP1 PUSH2 0xF2A JUMP JUMPDEST PUSH1 0x40 MLOAD DUP1 SWAP2 SUB SWAP1 RETURN JUMPDEST CALLVALUE DUP1 ISZERO PUSH2 0x195 JUMPI PUSH1 0x0 DUP1 REVERT JUMPDEST POP PUSH2 0x19E PUSH2 0x74E JUMP JUMPDEST PUSH1 0x40 MLOAD PUSH2 0x1AB SWAP2 SWAP1 PUSH2 0x100C JUMP JUMPDEST PUSH1 0x40 MLOAD DUP1 SWAP2 SUB SWAP1 RETURN JUMPDEST CALLVALUE DUP1 ISZERO PUSH2 0x1C0 JUMPI PUSH1 0x0 DUP1 REVERT JUMPDEST POP PUSH2 0x1DB PUSH1 0x4 DUP1 CALLDATASIZE SUB DUP2 ADD SWAP1 PUSH2 0x1D6 SWAP2 SWAP1 PUSH2 0xD42 JUMP JUMPDEST PUSH2 0x75D JUMP JUMPDEST PUSH1 0x40 MLOAD PUSH2 0x1E9 SWAP3 SWAP2 SWAP1 PUSH2 0xF6E JUMP JUMPDEST PUSH1 0x40 MLOAD DUP1 SWAP2 SUB SWAP1 RETURN JUMPDEST CALLVALUE DUP1 ISZERO PUSH2 0x1FE JUMPI PUSH1 0x0 DUP1 REVERT JUMPDEST POP PUSH2 0x207 PUSH2 0x80A JUMP JUMPDEST PUSH1 0x40 MLOAD PUSH2 0x214 SWAP2 SWAP1 PUSH2 0x100C JUMP JUMPDEST PUSH1 0x40 MLOAD DUP1 SWAP2 SUB SWAP1 RETURN JUMPDEST CALLVALUE DUP1 ISZERO PUSH2 0x229 JUMPI PUSH1 0x0 DUP1 REVERT JUMPDEST POP PUSH2 0x232 PUSH2 0x832 JUMP JUMPDEST PUSH1 0x40 MLOAD PUSH2 0x23F SWAP2 SWAP1 PUSH2 0x100C JUMP JUMPDEST PUSH1 0x40 MLOAD DUP1 SWAP2 SUB SWAP1 RETURN JUMPDEST CALLVALUE DUP1 ISZERO PUSH2 0x254 JUMPI PUSH1 0x0 DUP1 REVERT JUMPDEST POP PUSH2 0x26F PUSH1 0x4 DUP1 CALLDATASIZE SUB DUP2 ADD SWAP1 PUSH2 0x26A SWAP2 SWAP1 PUSH2 0xD8B JUMP JUMPDEST PUSH2 0x83C JUMP JUMPDEST PUSH1 0x40 MLOAD PUSH2 0x27C SWAP2 SWAP1 PUSH2 0xF2A JUMP JUMPDEST PUSH1 0x40 MLOAD DUP1 SWAP2 SUB SWAP1 RETURN JUMPDEST CALLVALUE DUP1 ISZERO PUSH2 0x291 JUMPI PUSH1 0x0 DUP1 REVERT JUMPDEST POP PUSH2 0x29A PUSH2 0x883 JUMP JUMPDEST PUSH1 0x40 MLOAD PUSH2 0x2A7 SWAP2 SWAP1 PUSH2 0x100C JUMP JUMPDEST PUSH1 0x40 MLOAD DUP1 SWAP2 SUB SWAP1 RETURN JUMPDEST PUSH1 0x0 PUSH32 0x0 SWAP1 POP SWAP1 JUMP JUMPDEST PUSH1 0x0 PUSH1 0x1 PUSH1 0x14 SWAP1 SLOAD SWAP1 PUSH2 0x100 EXP SWAP1 DIV PUSH1 0xFF AND SWAP1 POP SWAP1 JUMP JUMPDEST PUSH32 0x0 PUSH20 0xFFFFFFFFFFFFFFFFFFFFFFFFFFFFFFFFFFFFFFFF AND CALLER PUSH20 0xFFFFFFFFFFFFFFFFFFFFFFFFFFFFFFFFFFFFFFFF AND EQ PUSH2 0x3A1 JUMPI CALLER PUSH32 0x0 PUSH1 0x40 MLOAD PUSH32 0x1CF993F400000000000000000000000000000000000000000000000000000000 DUP2 MSTORE PUSH1 0x4 ADD PUSH2 0x398 SWAP3 SWAP2 SWAP1 PUSH2 0xF45 JUMP JUMPDEST PUSH1 0x40 MLOAD DUP1 SWAP2 SUB SWAP1 REVERT JUMPDEST PUSH2 0x3AB DUP3 DUP3 PUSH2 0x88F JUMP JUMPDEST POP POP JUMP JUMPDEST PUSH1 0x0 PUSH1 0x1 DUP2 GT ISZERO PUSH2 0x3C3 JUMPI PUSH2 0x3C2 PUSH2 0x12E6 JUMP JUMPDEST JUMPDEST PUSH1 0x1 PUSH1 0x14 SWAP1 SLOAD SWAP1 PUSH2 0x100 EXP SWAP1 DIV PUSH1 0xFF AND PUSH1 0x1 DUP2 GT ISZERO PUSH2 0x3E5 JUMPI PUSH2 0x3E4 PUSH2 0x12E6 JUMP JUMPDEST JUMPDEST EQ PUSH2 0x41C JUMPI PUSH1 0x40 MLOAD PUSH32 0x1425571C00000000000000000000000000000000000000000000000000000000 DUP2 MSTORE PUSH1 0x4 ADD PUSH1 0x40 MLOAD DUP1 SWAP2 SUB SWAP1 REVERT JUMPDEST PUSH32 0x0 CALLVALUE LT ISZERO PUSH2 0x476 JUMPI PUSH1 0x40 MLOAD PUSH32 0xBD4E069500000000000000000000000000000000000000000000000000000000 DUP2 MSTORE PUSH1 0x4 ADD PUSH1 0x40 MLOAD DUP1 SWAP2 SUB SWAP1 REVERT JUMPDEST PUSH1 0x0 CALLER SWAP1 DUP1 PUSH1 0x1 DUP2 SLOAD ADD DUP1 DUP3 SSTORE DUP1 SWAP2 POP POP PUSH1 0x1 SWAP1 SUB SWAP1 PUSH1 0x0 MSTORE PUSH1 0x20 PUSH1 0x0 KECCAK256 ADD PUSH1 0x0 SWAP1 SWAP2 SWAP1 SWAP2 SWAP1 SWAP2 PUSH2 0x100 EXP DUP2 SLOAD DUP2 PUSH20 0xFFFFFFFFFFFFFFFFFFFFFFFFFFFFFFFFFFFFFFFF MUL NOT AND SWAP1 DUP4 PUSH20 0xFFFFFFFFFFFFFFFFFFFFFFFFFFFFFFFFFFFFFFFF AND MUL OR SWAP1 SSTORE POP CALLER PUSH20 0xFFFFFFFFFFFFFFFFFFFFFFFFFFFFFFFFFFFFFFFF AND PUSH32 0x805E1D667BDDB8A95F0F09880CF94F403FB596CE79928D9F29B74203BA284D4 PUSH1 0x40 MLOAD PUSH1 0x40 MLOAD DUP1 SWAP2 SUB SWAP1 LOG2 JUMP JUMPDEST PUSH1 0x0 PUSH2 0x538 PUSH1 0x40 MLOAD DUP1 PUSH1 0x20 ADD PUSH1 0x40 MSTORE DUP1 PUSH1 0x0 DUP2 MSTORE POP PUSH2 0x75D JUMP JUMPDEST POP SWAP1 POP DUP1 PUSH2 0x5A7 JUMPI SELFBALANCE PUSH1 0x0 DUP1 SLOAD SWAP1 POP PUSH1 0x1 PUSH1 0x14 SWAP1 SLOAD SWAP1 PUSH2 0x100 EXP SWAP1 DIV PUSH1 0xFF AND PUSH1 0x1 DUP2 GT ISZERO PUSH2 0x569 JUMPI PUSH2 0x568 PUSH2 0x12E6 JUMP JUMPDEST JUMPDEST PUSH1 0x40 MLOAD PUSH32 0x584327AA00000000000000000000000000000000000000000000000000000000 DUP2 MSTORE PUSH1 0x4 ADD PUSH2 0x59E SWAP4 SWAP3 SWAP2 SWAP1 PUSH2 0x1027 JUMP JUMPDEST PUSH1 0x40 MLOAD DUP1 SWAP2 SUB SWAP1 REVERT JUMPDEST TIMESTAMP PUSH1 0x2 DUP2 SWAP1 SSTORE POP PUSH1 0x1 DUP1 PUSH1 0x14 PUSH2 0x100 EXP DUP2 SLOAD DUP2 PUSH1 0xFF MUL NOT AND SWAP1 DUP4 PUSH1 0x1 DUP2 GT ISZERO PUSH2 0x5D3 JUMPI PUSH2 0x5D2 PUSH2 0x12E6 JUMP JUMPDEST JUMPDEST MUL OR SWAP1 SSTORE POP PUSH1 0x0 PUSH32 0x0 PUSH20 0xFFFFFFFFFFFFFFFFFFFFFFFFFFFFFFFFFFFFFFFF AND PUSH4 0x5D3B1D30 PUSH32 0x0 PUSH32 0x0 PUSH1 0x3 PUSH32 0x0 PUSH1 0x1 PUSH1 0x40 MLOAD DUP7 PUSH4 0xFFFFFFFF AND PUSH1 0xE0 SHL DUP2 MSTORE PUSH1 0x4 ADD PUSH2 0x69D SWAP6 SWAP5 SWAP4 SWAP3 SWAP2 SWAP1 PUSH2 0xF9E JUMP JUMPDEST PUSH1 0x20 PUSH1 0x40 MLOAD DUP1 DUP4 SUB DUP2 PUSH1 0x0 DUP8 DUP1 EXTCODESIZE ISZERO DUP1 ISZERO PUSH2 0x6B7 JUMPI PUSH1 0x0 DUP1 REVERT JUMPDEST POP GAS CALL ISZERO DUP1 ISZERO PUSH2 0x6CB JUMPI RETURNDATASIZE PUSH1 0x0 DUP1 RETURNDATACOPY RETURNDATASIZE PUSH1 0x0 REVERT JUMPDEST POP POP POP POP PUSH1 0x40 MLOAD RETURNDATASIZE PUSH1 0x1F NOT PUSH1 0x1F DUP3 ADD AND DUP3 ADD DUP1 PUSH1 0x40 MSTORE POP DUP2 ADD SWAP1 PUSH2 0x6EF SWAP2 SWAP1 PUSH2 0xDB8 JUMP JUMPDEST SWAP1 POP DUP1 PUSH32 0xCD6E45C8998311CAB7E9D4385596CAC867E20A0587194B954FA3A731C93CE78B PUSH1 0x40 MLOAD PUSH1 0x40 MLOAD DUP1 SWAP2 SUB SWAP1 LOG2 POP POP POP POP JUMP JUMPDEST PUSH1 0x0 PUSH1 0x1 PUSH1 0x0 SWAP1 SLOAD SWAP1 PUSH2 0x100 EXP SWAP1 DIV PUSH20 0xFFFFFFFFFFFFFFFFFFFFFFFFFFFFFFFFFFFFFFFF AND SWAP1 POP SWAP1 JUMP JUMPDEST PUSH1 0x0 PUSH1 0x1 PUSH4 0xFFFFFFFF AND SWAP1 POP SWAP1 JUMP JUMPDEST PUSH1 0x0 PUSH1 0x60 PUSH1 0x0 PUSH1 0x1 PUSH1 0x14 SWAP1 SLOAD SWAP1 PUSH2 0x100 EXP SWAP1 DIV PUSH1 0xFF AND PUSH1 0x1 DUP2 GT ISZERO PUSH2 0x785 JUMPI PUSH2 0x784 PUSH2 0x12E6 JUMP JUMPDEST JUMPDEST PUSH1 0x0 PUSH1 0x1 DUP2 GT ISZERO PUSH2 0x799 JUMPI PUSH2 0x798 PUSH2 0x12E6 JUMP JUMPDEST JUMPDEST EQ SWAP1 POP PUSH1 0x0 DUP1 PUSH1 0x0 DUP1 SLOAD SWAP1 POP GT SWAP1 POP PUSH1 0x0 DUP1 SELFBALANCE GT SWAP1 POP PUSH1 0x0 PUSH32 0x0 PUSH1 0x2 SLOAD TIMESTAMP PUSH2 0x7E0 SWAP2 SWAP1 PUSH2 0x1107 JUMP JUMPDEST GT SWAP1 POP DUP4 DUP1 ISZERO PUSH2 0x7ED JUMPI POP DUP3 JUMPDEST DUP1 ISZERO PUSH2 0x7F6 JUMPI POP DUP2 JUMPDEST DUP1 ISZERO PUSH2 0x7FF JUMPI POP DUP1 JUMPDEST SWAP6 POP POP POP POP POP SWAP2 POP SWAP2 JUMP JUMPDEST PUSH1 0x0 PUSH32 0x0 SWAP1 POP SWAP1 JUMP JUMPDEST PUSH1 0x0 PUSH1 0x2 SLOAD SWAP1 POP SWAP1 JUMP JUMPDEST PUSH1 0x0 DUP1 DUP3 DUP2 SLOAD DUP2 LT PUSH2 0x851 JUMPI PUSH2 0x850 PUSH2 0x1315 JUMP JUMPDEST JUMPDEST SWAP1 PUSH1 0x0 MSTORE PUSH1 0x20 PUSH1 0x0 KECCAK256 ADD PUSH1 0x0 SWAP1 SLOAD SWAP1 PUSH2 0x100 EXP SWAP1 DIV PUSH20 0xFFFFFFFFFFFFFFFFFFFFFFFFFFFFFFFFFFFFFFFF AND SWAP1 POP SWAP2 SWAP1 POP JUMP JUMPDEST PUSH1 0x0 DUP1 DUP1 SLOAD SWAP1 POP SWAP1 POP SWAP1 JUMP JUMPDEST PUSH1 0x0 DUP1 DUP1 SLOAD SWAP1 POP DUP3 PUSH1 0x0 DUP2 MLOAD DUP2 LT PUSH2 0x8AA JUMPI PUSH2 0x8A9 PUSH2 0x1315 JUMP JUMPDEST JUMPDEST PUSH1 0x20 MUL PUSH1 0x20 ADD ADD MLOAD PUSH2 0x8BC SWAP2 SWAP1 PUSH2 0x1257 JUMP JUMPDEST SWAP1 POP PUSH1 0x0 DUP1 DUP3 DUP2 SLOAD DUP2 LT PUSH2 0x8D3 JUMPI PUSH2 0x8D2 PUSH2 0x1315 JUMP JUMPDEST JUMPDEST SWAP1 PUSH1 0x0 MSTORE PUSH1 0x20 PUSH1 0x0 KECCAK256 ADD PUSH1 0x0 SWAP1 SLOAD SWAP1 PUSH2 0x100 EXP SWAP1 DIV PUSH20 0xFFFFFFFFFFFFFFFFFFFFFFFFFFFFFFFFFFFFFFFF AND SWAP1 POP DUP1 PUSH1 0x1 PUSH1 0x0 PUSH2 0x100 EXP DUP2 SLOAD DUP2 PUSH20 0xFFFFFFFFFFFFFFFFFFFFFFFFFFFFFFFFFFFFFFFF MUL NOT AND SWAP1 DUP4 PUSH20 0xFFFFFFFFFFFFFFFFFFFFFFFFFFFFFFFFFFFFFFFF AND MUL OR SWAP1 SSTORE POP PUSH1 0x0 PUSH1 0x1 PUSH1 0x14 PUSH2 0x100 EXP DUP2 SLOAD DUP2 PUSH1 0xFF MUL NOT AND SWAP1 DUP4 PUSH1 0x1 DUP2 GT ISZERO PUSH2 0x967 JUMPI PUSH2 0x966 PUSH2 0x12E6 JUMP JUMPDEST JUMPDEST MUL OR SWAP1 SSTORE POP PUSH1 0x0 PUSH8 0xFFFFFFFFFFFFFFFF DUP2 GT ISZERO PUSH2 0x987 JUMPI PUSH2 0x986 PUSH2 0x1344 JUMP JUMPDEST JUMPDEST PUSH1 0x40 MLOAD SWAP1 DUP1 DUP3 MSTORE DUP1 PUSH1 0x20 MUL PUSH1 0x20 ADD DUP3 ADD PUSH1 0x40 MSTORE DUP1 ISZERO PUSH2 0x9B5 JUMPI DUP2 PUSH1 0x20 ADD PUSH1 0x20 DUP3 MUL DUP1 CALLDATASIZE DUP4 CALLDATACOPY DUP1 DUP3 ADD SWAP2 POP POP SWAP1 POP JUMPDEST POP PUSH1 0x0 SWAP1 DUP1 MLOAD SWAP1 PUSH1 0x20 ADD SWAP1 PUSH2 0x9CB SWAP3 SWAP2 SWAP1 PUSH2 0xAC0 JUMP JUMPDEST POP TIMESTAMP PUSH1 0x2 DUP2 SWAP1 SSTORE POP PUSH1 0x0 DUP2 PUSH20 0xFFFFFFFFFFFFFFFFFFFFFFFFFFFFFFFFFFFFFFFF AND SELFBALANCE PUSH1 0x40 MLOAD PUSH2 0x9F9 SWAP1 PUSH2 0xF15 JUMP JUMPDEST PUSH1 0x0 PUSH1 0x40 MLOAD DUP1 DUP4 SUB DUP2 DUP6 DUP8 GAS CALL SWAP3 POP POP POP RETURNDATASIZE DUP1 PUSH1 0x0 DUP2 EQ PUSH2 0xA36 JUMPI PUSH1 0x40 MLOAD SWAP2 POP PUSH1 0x1F NOT PUSH1 0x3F RETURNDATASIZE ADD AND DUP3 ADD PUSH1 0x40 MSTORE RETURNDATASIZE DUP3 MSTORE RETURNDATASIZE PUSH1 0x0 PUSH1 0x20 DUP5 ADD RETURNDATACOPY PUSH2 0xA3B JUMP JUMPDEST PUSH1 0x60 SWAP2 POP JUMPDEST POP POP SWAP1 POP DUP1 PUSH2 0xA76 JUMPI PUSH1 0x40 MLOAD PUSH32 0xA1D04B3900000000000000000000000000000000000000000000000000000000 DUP2 MSTORE PUSH1 0x4 ADD PUSH1 0x40 MLOAD DUP1 SWAP2 SUB SWAP1 REVERT JUMPDEST DUP2 PUSH20 0xFFFFFFFFFFFFFFFFFFFFFFFFFFFFFFFFFFFFFFFF AND PUSH32 0x5B690EC4A06FE979403046EAEEA5B3CE38524683C3001F662C8B5A829632F7DF PUSH1 0x40 MLOAD PUSH1 0x40 MLOAD DUP1 SWAP2 SUB SWAP1 LOG2 POP POP POP POP POP JUMP JUMPDEST DUP3 DUP1 SLOAD DUP3 DUP3 SSTORE SWAP1 PUSH1 0x0 MSTORE PUSH1 0x20 PUSH1 0x0 KECCAK256 SWAP1 DUP2 ADD SWAP3 DUP3 ISZERO PUSH2 0xB39 JUMPI SWAP2 PUSH1 0x20 MUL DUP3 ADD JUMPDEST DUP3 DUP2 GT ISZERO PUSH2 0xB38 JUMPI DUP3 MLOAD DUP3 PUSH1 0x0 PUSH2 0x100 EXP DUP2 SLOAD DUP2 PUSH20 0xFFFFFFFFFFFFFFFFFFFFFFFFFFFFFFFFFFFFFFFF MUL NOT AND SWAP1 DUP4 PUSH20 0xFFFFFFFFFFFFFFFFFFFFFFFFFFFFFFFFFFFFFFFF AND MUL OR SWAP1 SSTORE POP SWAP2 PUSH1 0x20 ADD SWAP2 SWAP1 PUSH1 0x1 ADD SWAP1 PUSH2 0xAE0 JUMP JUMPDEST JUMPDEST POP SWAP1 POP PUSH2 0xB46 SWAP2 SWAP1 PUSH2 0xB4A JUMP JUMPDEST POP SWAP1 JUMP JUMPDEST JUMPDEST DUP1 DUP3 GT ISZERO PUSH2 0xB63 JUMPI PUSH1 0x0 DUP2 PUSH1 0x0 SWAP1 SSTORE POP PUSH1 0x1 ADD PUSH2 0xB4B JUMP JUMPDEST POP SWAP1 JUMP JUMPDEST PUSH1 0x0 PUSH2 0xB7A PUSH2 0xB75 DUP5 PUSH2 0x1083 JUMP JUMPDEST PUSH2 0x105E JUMP JUMPDEST SWAP1 POP DUP1 DUP4 DUP3 MSTORE PUSH1 0x20 DUP3 ADD SWAP1 POP DUP3 DUP6 PUSH1 0x20 DUP7 MUL DUP3 ADD GT ISZERO PUSH2 0xB9D JUMPI PUSH2 0xB9C PUSH2 0x137D JUMP JUMPDEST JUMPDEST PUSH1 0x0 JUMPDEST DUP6 DUP2 LT ISZERO PUSH2 0xBCD JUMPI DUP2 PUSH2 0xBB3 DUP9 DUP3 PUSH2 0xCCB JUMP JUMPDEST DUP5 MSTORE PUSH1 0x20 DUP5 ADD SWAP4 POP PUSH1 0x20 DUP4 ADD SWAP3 POP POP PUSH1 0x1 DUP2 ADD SWAP1 POP PUSH2 0xBA0 JUMP JUMPDEST POP POP POP SWAP4 SWAP3 POP POP POP JUMP JUMPDEST PUSH1 0x0 PUSH2 0xBEA PUSH2 0xBE5 DUP5 PUSH2 0x10AF JUMP JUMPDEST PUSH2 0x105E JUMP JUMPDEST SWAP1 POP DUP3 DUP2 MSTORE PUSH1 0x20 DUP2 ADD DUP5 DUP5 DUP5 ADD GT ISZERO PUSH2 0xC06 JUMPI PUSH2 0xC05 PUSH2 0x1382 JUMP JUMPDEST JUMPDEST PUSH2 0xC11 DUP5 DUP3 DUP6 PUSH2 0x11E4 JUMP JUMPDEST POP SWAP4 SWAP3 POP POP POP JUMP JUMPDEST PUSH1 0x0 DUP3 PUSH1 0x1F DUP4 ADD SLT PUSH2 0xC2E JUMPI PUSH2 0xC2D PUSH2 0x1378 JUMP JUMPDEST JUMPDEST DUP2 CALLDATALOAD PUSH2 0xC3E DUP5 DUP3 PUSH1 0x20 DUP7 ADD PUSH2 0xB67 JUMP JUMPDEST SWAP2 POP POP SWAP3 SWAP2 POP POP JUMP JUMPDEST PUSH1 0x0 DUP1 DUP4 PUSH1 0x1F DUP5 ADD SLT PUSH2 0xC5D JUMPI PUSH2 0xC5C PUSH2 0x1378 JUMP JUMPDEST JUMPDEST DUP3 CALLDATALOAD SWAP1 POP PUSH8 0xFFFFFFFFFFFFFFFF DUP2 GT ISZERO PUSH2 0xC7A JUMPI PUSH2 0xC79 PUSH2 0x1373 JUMP JUMPDEST JUMPDEST PUSH1 0x20 DUP4 ADD SWAP2 POP DUP4 PUSH1 0x1 DUP3 MUL DUP4 ADD GT ISZERO PUSH2 0xC96 JUMPI PUSH2 0xC95 PUSH2 0x137D JUMP JUMPDEST JUMPDEST SWAP3 POP SWAP3 SWAP1 POP JUMP JUMPDEST PUSH1 0x0 DUP3 PUSH1 0x1F DUP4 ADD SLT PUSH2 0xCB2 JUMPI PUSH2 0xCB1 PUSH2 0x1378 JUMP JUMPDEST JUMPDEST DUP2 CALLDATALOAD PUSH2 0xCC2 DUP5 DUP3 PUSH1 0x20 DUP7 ADD PUSH2 0xBD7 JUMP JUMPDEST SWAP2 POP POP SWAP3 SWAP2 POP POP JUMP JUMPDEST PUSH1 0x0 DUP2 CALLDATALOAD SWAP1 POP PUSH2 0xCDA DUP2 PUSH2 0x13B9 JUMP JUMPDEST SWAP3 SWAP2 POP POP JUMP JUMPDEST PUSH1 0x0 DUP2 MLOAD SWAP1 POP PUSH2 0xCEF DUP2 PUSH2 0x13B9 JUMP JUMPDEST SWAP3 SWAP2 POP POP JUMP JUMPDEST PUSH1 0x0 DUP1 PUSH1 0x20 DUP4 DUP6 SUB SLT ISZERO PUSH2 0xD0C JUMPI PUSH2 0xD0B PUSH2 0x138C JUMP JUMPDEST JUMPDEST PUSH1 0x0 DUP4 ADD CALLDATALOAD PUSH8 0xFFFFFFFFFFFFFFFF DUP2 GT ISZERO PUSH2 0xD2A JUMPI PUSH2 0xD29 PUSH2 0x1387 JUMP JUMPDEST JUMPDEST PUSH2 0xD36 DUP6 DUP3 DUP7 ADD PUSH2 0xC47 JUMP JUMPDEST SWAP3 POP SWAP3 POP POP SWAP3 POP SWAP3 SWAP1 POP JUMP JUMPDEST PUSH1 0x0 PUSH1 0x20 DUP3 DUP5 SUB SLT ISZERO PUSH2 0xD58 JUMPI PUSH2 0xD57 PUSH2 0x138C JUMP JUMPDEST JUMPDEST PUSH1 0x0 DUP3 ADD CALLDATALOAD PUSH8 0xFFFFFFFFFFFFFFFF DUP2 GT ISZERO PUSH2 0xD76 JUMPI PUSH2 0xD75 PUSH2 0x1387 JUMP JUMPDEST JUMPDEST PUSH2 0xD82 DUP5 DUP3 DUP6 ADD PUSH2 0xC9D JUMP JUMPDEST SWAP2 POP POP SWAP3 SWAP2 POP POP JUMP JUMPDEST PUSH1 0x0 PUSH1 0x20 DUP3 DUP5 SUB SLT ISZERO PUSH2 0xDA1 JUMPI PUSH2 0xDA0 PUSH2 0x138C JUMP JUMPDEST JUMPDEST PUSH1 0x0 PUSH2 0xDAF DUP5 DUP3 DUP6 ADD PUSH2 0xCCB JUMP JUMPDEST SWAP2 POP POP SWAP3 SWAP2 POP POP JUMP JUMPDEST PUSH1 0x0 PUSH1 0x20 DUP3 DUP5 SUB SLT ISZERO PUSH2 0xDCE JUMPI PUSH2 0xDCD PUSH2 0x138C JUMP JUMPDEST JUMPDEST PUSH1 0x0 PUSH2 0xDDC DUP5 DUP3 DUP6 ADD PUSH2 0xCE0 JUMP JUMPDEST SWAP2 POP POP SWAP3 SWAP2 POP POP JUMP JUMPDEST PUSH1 0x0 DUP1 PUSH1 0x40 DUP4 DUP6 SUB SLT ISZERO PUSH2 0xDFC JUMPI PUSH2 0xDFB PUSH2 0x138C JUMP JUMPDEST JUMPDEST PUSH1 0x0 PUSH2 0xE0A DUP6 DUP3 DUP7 ADD PUSH2 0xCCB JUMP JUMPDEST SWAP3 POP POP PUSH1 0x20 DUP4 ADD CALLDATALOAD PUSH8 0xFFFFFFFFFFFFFFFF DUP2 GT ISZERO PUSH2 0xE2B JUMPI PUSH2 0xE2A PUSH2 0x1387 JUMP JUMPDEST JUMPDEST PUSH2 0xE37 DUP6 DUP3 DUP7 ADD PUSH2 0xC19 JUMP JUMPDEST SWAP2 POP POP SWAP3 POP SWAP3 SWAP1 POP JUMP JUMPDEST PUSH2 0xE4A DUP2 PUSH2 0x113B JUMP JUMPDEST DUP3 MSTORE POP POP JUMP JUMPDEST PUSH2 0xE59 DUP2 PUSH2 0x114D JUMP JUMPDEST DUP3 MSTORE POP POP JUMP JUMPDEST PUSH2 0xE68 DUP2 PUSH2 0x1159 JUMP JUMPDEST DUP3 MSTORE POP POP JUMP JUMPDEST PUSH1 0x0 PUSH2 0xE79 DUP3 PUSH2 0x10E0 JUMP JUMPDEST PUSH2 0xE83 DUP2 DUP6 PUSH2 0x10EB JUMP JUMPDEST SWAP4 POP PUSH2 0xE93 DUP2 DUP6 PUSH1 0x20 DUP7 ADD PUSH2 0x11F3 JUMP JUMPDEST PUSH2 0xE9C DUP2 PUSH2 0x1391 JUMP JUMPDEST DUP5 ADD SWAP2 POP POP SWAP3 SWAP2 POP POP JUMP JUMPDEST PUSH2 0xEB0 DUP2 PUSH2 0x11D2 JUMP JUMPDEST DUP3 MSTORE POP POP JUMP JUMPDEST PUSH1 0x0 PUSH2 0xEC3 PUSH1 0x0 DUP4 PUSH2 0x10FC JUMP JUMPDEST SWAP2 POP PUSH2 0xECE DUP3 PUSH2 0x13A2 JUMP JUMPDEST PUSH1 0x0 DUP3 ADD SWAP1 POP SWAP2 SWAP1 POP JUMP JUMPDEST PUSH2 0xEE2 DUP2 PUSH2 0x1176 JUMP JUMPDEST DUP3 MSTORE POP POP JUMP JUMPDEST PUSH2 0xEF1 DUP2 PUSH2 0x11A4 JUMP JUMPDEST DUP3 MSTORE POP POP JUMP JUMPDEST PUSH2 0xF00 DUP2 PUSH2 0x11AE JUMP JUMPDEST DUP3 MSTORE POP POP JUMP JUMPDEST PUSH2 0xF0F DUP2 PUSH2 0x11BE JUMP JUMPDEST DUP3 MSTORE POP POP JUMP JUMPDEST PUSH1 0x0 PUSH2 0xF20 DUP3 PUSH2 0xEB6 JUMP JUMPDEST SWAP2 POP DUP2 SWAP1 POP SWAP2 SWAP1 POP JUMP JUMPDEST PUSH1 0x0 PUSH1 0x20 DUP3 ADD SWAP1 POP PUSH2 0xF3F PUSH1 0x0 DUP4 ADD DUP5 PUSH2 0xE41 JUMP JUMPDEST SWAP3 SWAP2 POP POP JUMP JUMPDEST PUSH1 0x0 PUSH1 0x40 DUP3 ADD SWAP1 POP PUSH2 0xF5A PUSH1 0x0 DUP4 ADD DUP6 PUSH2 0xE41 JUMP JUMPDEST PUSH2 0xF67 PUSH1 0x20 DUP4 ADD DUP5 PUSH2 0xE41 JUMP JUMPDEST SWAP4 SWAP3 POP POP POP JUMP JUMPDEST PUSH1 0x0 PUSH1 0x40 DUP3 ADD SWAP1 POP PUSH2 0xF83 PUSH1 0x0 DUP4 ADD DUP6 PUSH2 0xE50 JUMP JUMPDEST DUP2 DUP2 SUB PUSH1 0x20 DUP4 ADD MSTORE PUSH2 0xF95 DUP2 DUP5 PUSH2 0xE6E JUMP JUMPDEST SWAP1 POP SWAP4 SWAP3 POP POP POP JUMP JUMPDEST PUSH1 0x0 PUSH1 0xA0 DUP3 ADD SWAP1 POP PUSH2 0xFB3 PUSH1 0x0 DUP4 ADD DUP9 PUSH2 0xE5F JUMP JUMPDEST PUSH2 0xFC0 PUSH1 0x20 DUP4 ADD DUP8 PUSH2 0xF06 JUMP JUMPDEST PUSH2 0xFCD PUSH1 0x40 DUP4 ADD DUP7 PUSH2 0xED9 JUMP JUMPDEST PUSH2 0xFDA PUSH1 0x60 DUP4 ADD DUP6 PUSH2 0xEF7 JUMP JUMPDEST PUSH2 0xFE7 PUSH1 0x80 DUP4 ADD DUP5 PUSH2 0xEF7 JUMP JUMPDEST SWAP7 SWAP6 POP POP POP POP POP POP JUMP JUMPDEST PUSH1 0x0 PUSH1 0x20 DUP3 ADD SWAP1 POP PUSH2 0x1006 PUSH1 0x0 DUP4 ADD DUP5 PUSH2 0xEA7 JUMP JUMPDEST SWAP3 SWAP2 POP POP JUMP JUMPDEST PUSH1 0x0 PUSH1 0x20 DUP3 ADD SWAP1 POP PUSH2 0x1021 PUSH1 0x0 DUP4 ADD DUP5 PUSH2 0xEE8 JUMP JUMPDEST SWAP3 SWAP2 POP POP JUMP JUMPDEST PUSH1 0x0 PUSH1 0x60 DUP3 ADD SWAP1 POP PUSH2 0x103C PUSH1 0x0 DUP4 ADD DUP7 PUSH2 0xEE8 JUMP JUMPDEST PUSH2 0x1049 PUSH1 0x20 DUP4 ADD DUP6 PUSH2 0xEE8 JUMP JUMPDEST PUSH2 0x1056 PUSH1 0x40 DUP4 ADD DUP5 PUSH2 0xEE8 JUMP JUMPDEST SWAP5 SWAP4 POP POP POP POP JUMP JUMPDEST PUSH1 0x0 PUSH2 0x1068 PUSH2 0x1079 JUMP JUMPDEST SWAP1 POP PUSH2 0x1074 DUP3 DUP3 PUSH2 0x1226 JUMP JUMPDEST SWAP2 SWAP1 POP JUMP JUMPDEST PUSH1 0x0 PUSH1 0x40 MLOAD SWAP1 POP SWAP1 JUMP JUMPDEST PUSH1 0x0 PUSH8 0xFFFFFFFFFFFFFFFF DUP3 GT ISZERO PUSH2 0x109E JUMPI PUSH2 0x109D PUSH2 0x1344 JUMP JUMPDEST JUMPDEST PUSH1 0x20 DUP3 MUL SWAP1 POP PUSH1 0x20 DUP2 ADD SWAP1 POP SWAP2 SWAP1 POP JUMP JUMPDEST PUSH1 0x0 PUSH8 0xFFFFFFFFFFFFFFFF DUP3 GT ISZERO PUSH2 0x10CA JUMPI PUSH2 0x10C9 PUSH2 0x1344 JUMP JUMPDEST JUMPDEST PUSH2 0x10D3 DUP3 PUSH2 0x1391 JUMP JUMPDEST SWAP1 POP PUSH1 0x20 DUP2 ADD SWAP1 POP SWAP2 SWAP1 POP JUMP JUMPDEST PUSH1 0x0 DUP2 MLOAD SWAP1 POP SWAP2 SWAP1 POP JUMP JUMPDEST PUSH1 0x0 DUP3 DUP3 MSTORE PUSH1 0x20 DUP3 ADD SWAP1 POP SWAP3 SWAP2 POP POP JUMP JUMPDEST PUSH1 0x0 DUP2 SWAP1 POP SWAP3 SWAP2 POP POP JUMP JUMPDEST PUSH1 0x0 PUSH2 0x1112 DUP3 PUSH2 0x11A4 JUMP JUMPDEST SWAP2 POP PUSH2 0x111D DUP4 PUSH2 0x11A4 JUMP JUMPDEST SWAP3 POP DUP3 DUP3 LT ISZERO PUSH2 0x1130 JUMPI PUSH2 0x112F PUSH2 0x1288 JUMP JUMPDEST JUMPDEST DUP3 DUP3 SUB SWAP1 POP SWAP3 SWAP2 POP POP JUMP JUMPDEST PUSH1 0x0 PUSH2 0x1146 DUP3 PUSH2 0x1184 JUMP JUMPDEST SWAP1 POP SWAP2 SWAP1 POP JUMP JUMPDEST PUSH1 0x0 DUP2 ISZERO ISZERO SWAP1 POP SWAP2 SWAP1 POP JUMP JUMPDEST PUSH1 0x0 DUP2 SWAP1 POP SWAP2 SWAP1 POP JUMP JUMPDEST PUSH1 0x0 DUP2 SWAP1 POP PUSH2 0x1171 DUP3 PUSH2 0x13A5 JUMP JUMPDEST SWAP2 SWAP1 POP JUMP JUMPDEST PUSH1 0x0 PUSH2 0xFFFF DUP3 AND SWAP1 POP SWAP2 SWAP1 POP JUMP JUMPDEST PUSH1 0x0 PUSH20 0xFFFFFFFFFFFFFFFFFFFFFFFFFFFFFFFFFFFFFFFF DUP3 AND SWAP1 POP SWAP2 SWAP1 POP JUMP JUMPDEST PUSH1 0x0 DUP2 SWAP1 POP SWAP2 SWAP1 POP JUMP JUMPDEST PUSH1 0x0 PUSH4 0xFFFFFFFF DUP3 AND SWAP1 POP SWAP2 SWAP1 POP JUMP JUMPDEST PUSH1 0x0 PUSH8 0xFFFFFFFFFFFFFFFF DUP3 AND SWAP1 POP SWAP2 SWAP1 POP JUMP JUMPDEST PUSH1 0x0 PUSH2 0x11DD DUP3 PUSH2 0x1163 JUMP JUMPDEST SWAP1 POP SWAP2 SWAP1 POP JUMP JUMPDEST DUP3 DUP2 DUP4 CALLDATACOPY PUSH1 0x0 DUP4 DUP4 ADD MSTORE POP POP POP JUMP JUMPDEST PUSH1 0x0 JUMPDEST DUP4 DUP2 LT ISZERO PUSH2 0x1211 JUMPI DUP1 DUP3 ADD MLOAD DUP2 DUP5 ADD MSTORE PUSH1 0x20 DUP2 ADD SWAP1 POP PUSH2 0x11F6 JUMP JUMPDEST DUP4 DUP2 GT ISZERO PUSH2 0x1220 JUMPI PUSH1 0x0 DUP5 DUP5 ADD MSTORE JUMPDEST POP POP POP POP JUMP JUMPDEST PUSH2 0x122F DUP3 PUSH2 0x1391 JUMP JUMPDEST DUP2 ADD DUP2 DUP2 LT PUSH8 0xFFFFFFFFFFFFFFFF DUP3 GT OR ISZERO PUSH2 0x124E JUMPI PUSH2 0x124D PUSH2 0x1344 JUMP JUMPDEST JUMPDEST DUP1 PUSH1 0x40 MSTORE POP POP POP JUMP JUMPDEST PUSH1 0x0 PUSH2 0x1262 DUP3 PUSH2 0x11A4 JUMP JUMPDEST SWAP2 POP PUSH2 0x126D DUP4 PUSH2 0x11A4 JUMP JUMPDEST SWAP3 POP DUP3 PUSH2 0x127D JUMPI PUSH2 0x127C PUSH2 0x12B7 JUMP JUMPDEST JUMPDEST DUP3 DUP3 MOD SWAP1 POP SWAP3 SWAP2 POP POP JUMP JUMPDEST PUSH32 0x4E487B7100000000000000000000000000000000000000000000000000000000 PUSH1 0x0 MSTORE PUSH1 0x11 PUSH1 0x4 MSTORE PUSH1 0x24 PUSH1 0x0 REVERT JUMPDEST PUSH32 0x4E487B7100000000000000000000000000000000000000000000000000000000 PUSH1 0x0 MSTORE PUSH1 0x12 PUSH1 0x4 MSTORE PUSH1 0x24 PUSH1 0x0 REVERT JUMPDEST PUSH32 0x4E487B7100000000000000000000000000000000000000000000000000000000 PUSH1 0x0 MSTORE PUSH1 0x21 PUSH1 0x4 MSTORE PUSH1 0x24 PUSH1 0x0 REVERT JUMPDEST PUSH32 0x4E487B7100000000000000000000000000000000000000000000000000000000 PUSH1 0x0 MSTORE PUSH1 0x32 PUSH1 0x4 MSTORE PUSH1 0x24 PUSH1 0x0 REVERT JUMPDEST PUSH32 0x4E487B7100000000000000000000000000000000000000000000000000000000 PUSH1 0x0 MSTORE PUSH1 0x41 PUSH1 0x4 MSTORE PUSH1 0x24 PUSH1 0x0 REVERT JUMPDEST PUSH1 0x0 DUP1 REVERT JUMPDEST PUSH1 0x0 DUP1 REVERT JUMPDEST PUSH1 0x0 DUP1 REVERT JUMPDEST PUSH1 0x0 DUP1 REVERT JUMPDEST PUSH1 0x0 DUP1 REVERT JUMPDEST PUSH1 0x0 DUP1 REVERT JUMPDEST PUSH1 0x0 PUSH1 0x1F NOT PUSH1 0x1F DUP4 ADD AND SWAP1 POP SWAP2 SWAP1 POP JUMP JUMPDEST POP JUMP JUMPDEST PUSH1 0x2 DUP2 LT PUSH2 0x13B6 JUMPI PUSH2 0x13B5 PUSH2 0x12E6 JUMP JUMPDEST JUMPDEST POP JUMP JUMPDEST PUSH2 0x13C2 DUP2 PUSH2 0x11A4 JUMP JUMPDEST DUP2 EQ PUSH2 0x13CD JUMPI PUSH1 0x0 DUP1 REVERT JUMPDEST POP JUMP INVALID LOG2 PUSH5 0x6970667358 0x22 SLT KECCAK256 0xE9 0x22 0x2D 0xEC LOG4 0xF7 STOP 0x49 0xBD CALL CREATE2 0xB5 0x29 0xB1 LT PC 0x27 0x49 DUP2 0xFC STATICCALL 0xA7 PUSH7 0x6A8A90935AEF6E SWAP16 0xD PUSH5 0x736F6C6343 STOP ADDMOD SMOD STOP CALLER "},"gasEstimates":{"creation":{"codeDepositCost":"1025200","executionCost":"infinite","totalCost":"infinite"},"external":{"checkUpkeep(bytes)":"infinite","enterRaffle()":"infinite","getEntranceFee()":"infinite","getInterval()":"infinite","getLastTimeStamp()":"2503","getNumWords()":"343","getNumberOfPlayers()":"2555","getPlayer(uint256)":"5055","getRaffleState()":"2641","getRecentWinner()":"2633","performUpkeep(bytes)":"infinite","rawFulfillRandomWords(uint256,uint256[])":"infinite"},"internal":{"fulfillRandomWords(uint256,uint256[] memory)":"infinite"}},"methodIdentifiers":{"checkUpkeep(bytes)":"6e04ff0d","enterRaffle()":"2cfcc539","getEntranceFee()":"09bc33a7","getInterval()":"91ad27b4","getLastTimeStamp()":"c1c244e8","getNumWords()":"53a2c19a","getNumberOfPlayers()":"fd6673f5","getPlayer(uint256)":"e55ae4e8","getRaffleState()":"115cbaf5","getRecentWinner()":"473f1ddc","performUpkeep(bytes)":"4585e33b","rawFulfillRandomWords(uint256,uint256[])":"1fe543e3"}},"storageLayout":{"storage":[{"astId":1208,"contract":"contracts/Raffle.sol:Raffle","label":"s_players","offset":0,"slot":"0","type":"t_array(t_address_payable)dyn_storage"},{"astId":1225,"contract":"contracts/Raffle.sol:Raffle","label":"s_recentWinner","offset":0,"slot":"1","type":"t_address"},{"astId":1228,"contract":"contracts/Raffle.sol:Raffle","label":"s_raffleState","offset":20,"slot":"1","type":"t_enum(RaffleState)1203"},{"astId":1230,"contract":"contracts/Raffle.sol:Raffle","label":"s_lastTimeStamp","offset":0,"slot":"2","type":"t_uint256"}],"types":{"t_address":{"encoding":"inplace","label":"address","numberOfBytes":"20"},"t_address_payable":{"encoding":"inplace","label":"address payable","numberOfBytes":"20"},"t_array(t_address_payable)dyn_storage":{"base":"t_address_payable","encoding":"dynamic_array","label":"address payable[]","numberOfBytes":"32"},"t_enum(RaffleState)1203":{"encoding":"inplace","label":"enum Raffle.RaffleState","numberOfBytes":"1"},"t_uint256":{"encoding":"inplace","label":"uint256","numberOfBytes":"32"}}},"userdoc":{"kind":"user","methods":{"constructor":{"notice":"HARDCODED FOR SEPOLIA COORDINATOR: 0x8103B0A8A00be2DDC778e6e7eaa21791Cd364625"}},"version":1}}}}