{
  "address": "0x4b8F95a29978d036cCbf2Fe70831e7cAbBB2bbAb",
  "abi": [
    {
      "inputs": [
        {
          "internalType": "address",
          "name": "vrfCoordinatorV2",
          "type": "address"
        },
        {
          "internalType": "uint256",
          "name": "entranceFee",
          "type": "uint256"
        },
        {
          "internalType": "bytes32",
          "name": "gasLane",
          "type": "bytes32"
        },
        {
          "internalType": "uint64",
          "name": "subscriptionId",
          "type": "uint64"
        },
        {
          "internalType": "uint32",
          "name": "callbackGasLimit",
          "type": "uint32"
        },
        {
          "internalType": "uint256",
          "name": "interval",
          "type": "uint256"
        }
      ],
      "stateMutability": "nonpayable",
      "type": "constructor"
    },
    {
      "inputs": [
        {
          "internalType": "address",
          "name": "have",
          "type": "address"
        },
        {
          "internalType": "address",
          "name": "want",
          "type": "address"
        }
      ],
      "name": "OnlyCoordinatorCanFulfill",
      "type": "error"
    },
    {
      "inputs": [],
      "name": "Raffle__NotEnoughETHEntered",
      "type": "error"
    },
    {
      "inputs": [],
      "name": "Raffle__NotOpen",
      "type": "error"
    },
    {
      "inputs": [],
      "name": "Raffle__TransferFailed",
      "type": "error"
    },
    {
      "inputs": [
        {
          "internalType": "uint256",
          "name": "currentBalance",
          "type": "uint256"
        },
        {
          "internalType": "uint256",
          "name": "numPlayers",
          "type": "uint256"
        },
        {
          "internalType": "uint256",
          "name": "raffleState",
          "type": "uint256"
        }
      ],
      "name": "Raffle__UpkeepNotNeeded",
      "type": "error"
    },
    {
      "anonymous": false,
      "inputs": [
        {
          "indexed": true,
          "internalType": "address",
          "name": "player",
          "type": "address"
        }
      ],
      "name": "RaffleEnter",
      "type": "event"
    },
    {
      "anonymous": false,
      "inputs": [
        {
          "indexed": true,
          "internalType": "uint256",
          "name": "requestId",
          "type": "uint256"
        }
      ],
      "name": "RequestedRaffleWinner",
      "type": "event"
    },
    {
      "anonymous": false,
      "inputs": [
        {
          "indexed": true,
          "internalType": "address",
          "name": "winner",
          "type": "address"
        }
      ],
      "name": "WinnerPicked",
      "type": "event"
    },
    {
      "inputs": [
        {
          "internalType": "bytes",
          "name": "",
          "type": "bytes"
        }
      ],
      "name": "checkUpkeep",
      "outputs": [
        {
          "internalType": "bool",
          "name": "upkeepNeeded",
          "type": "bool"
        },
        {
          "internalType": "bytes",
          "name": "",
          "type": "bytes"
        }
      ],
      "stateMutability": "view",
      "type": "function"
    },
    {
      "inputs": [],
      "name": "enterRaffle",
      "outputs": [],
      "stateMutability": "payable",
      "type": "function"
    },
    {
      "inputs": [],
      "name": "getEntranceFee",
      "outputs": [
        {
          "internalType": "uint256",
          "name": "",
          "type": "uint256"
        }
      ],
      "stateMutability": "view",
      "type": "function"
    },
    {
      "inputs": [],
      "name": "getInterval",
      "outputs": [
        {
          "internalType": "uint256",
          "name": "",
          "type": "uint256"
        }
      ],
      "stateMutability": "view",
      "type": "function"
    },
    {
      "inputs": [],
      "name": "getLastTimeStamp",
      "outputs": [
        {
          "internalType": "uint256",
          "name": "",
          "type": "uint256"
        }
      ],
      "stateMutability": "view",
      "type": "function"
    },
    {
      "inputs": [],
      "name": "getNumWords",
      "outputs": [
        {
          "internalType": "uint256",
          "name": "",
          "type": "uint256"
        }
      ],
      "stateMutability": "pure",
      "type": "function"
    },
    {
      "inputs": [],
      "name": "getNumberOfPlayers",
      "outputs": [
        {
          "internalType": "uint256",
          "name": "",
          "type": "uint256"
        }
      ],
      "stateMutability": "view",
      "type": "function"
    },
    {
      "inputs": [
        {
          "internalType": "uint256",
          "name": "index",
          "type": "uint256"
        }
      ],
      "name": "getPlayer",
      "outputs": [
        {
          "internalType": "address",
          "name": "",
          "type": "address"
        }
      ],
      "stateMutability": "view",
      "type": "function"
    },
    {
      "inputs": [],
      "name": "getRaffleState",
      "outputs": [
        {
          "internalType": "enum Raffle.RaffleState",
          "name": "",
          "type": "uint8"
        }
      ],
      "stateMutability": "view",
      "type": "function"
    },
    {
      "inputs": [],
      "name": "getRecentWinner",
      "outputs": [
        {
          "internalType": "address",
          "name": "",
          "type": "address"
        }
      ],
      "stateMutability": "view",
      "type": "function"
    },
    {
      "inputs": [
        {
          "internalType": "bytes",
          "name": "",
          "type": "bytes"
        }
      ],
      "name": "performUpkeep",
      "outputs": [],
      "stateMutability": "nonpayable",
      "type": "function"
    },
    {
      "inputs": [
        {
          "internalType": "uint256",
          "name": "requestId",
          "type": "uint256"
        },
        {
          "internalType": "uint256[]",
          "name": "randomWords",
          "type": "uint256[]"
        }
      ],
      "name": "rawFulfillRandomWords",
      "outputs": [],
      "stateMutability": "nonpayable",
      "type": "function"
    }
  ],
  "transactionHash": "0x6f2fb4d28e5c32aa0efbbb03488494885212718451451c43d20033a028e1f8d0",
  "args": [
    "0x8103B0A8A00be2DDC778e6e7eaa21791Cd364625",
    "10000000000000000",
    "0x474e34a077df58807dbe9c96d3c009b23b3c6d0cce433e59bbf5b34f823bc56c",
    "1099",
    "500000",
    "30"
  ],
  "numDeployments": 1,
  "solcInputHash": "2478c664a54afeb01b638b203da41072",
  "bytecode": "0x6101606040523480156200001257600080fd5b50604051620017ed380380620017ed8339818101604052810190620000389190620001ad565b858073ffffffffffffffffffffffffffffffffffffffff1660808173ffffffffffffffffffffffffffffffffffffffff1660601b81525050508573ffffffffffffffffffffffffffffffffffffffff1660c08173ffffffffffffffffffffffffffffffffffffffff1660601b815250508460a081815250508360e081815250508267ffffffffffffffff166101008167ffffffffffffffff1660c01b815250508163ffffffff166101208163ffffffff1660e01b815250506000600160146101000a81548160ff02191690836001811115620001195762000118620002b5565b5b0217905550426002819055508061014081815250505050505050506200036b565b6000815190506200014b81620002e9565b92915050565b600081519050620001628162000303565b92915050565b60008151905062000179816200031d565b92915050565b600081519050620001908162000337565b92915050565b600081519050620001a78162000351565b92915050565b60008060008060008060c08789031215620001cd57620001cc620002e4565b5b6000620001dd89828a016200013a565b9650506020620001f089828a0162000168565b95505060406200020389828a0162000151565b94505060606200021689828a0162000196565b93505060806200022989828a016200017f565b92505060a06200023c89828a0162000168565b9150509295509295509295565b6000620002568262000267565b9050919050565b6000819050919050565b600073ffffffffffffffffffffffffffffffffffffffff82169050919050565b6000819050919050565b600063ffffffff82169050919050565b600067ffffffffffffffff82169050919050565b7f4e487b7100000000000000000000000000000000000000000000000000000000600052602160045260246000fd5b600080fd5b620002f48162000249565b81146200030057600080fd5b50565b6200030e816200025d565b81146200031a57600080fd5b50565b620003288162000287565b81146200033457600080fd5b50565b620003428162000291565b81146200034e57600080fd5b50565b6200035c81620002a1565b81146200036857600080fd5b50565b60805160601c60a05160c05160601c60e0516101005160c01c6101205160e01c61014051611406620003e7600039600081816107b3015261080e0152600061065c0152600061063901526000610618015260006105dc0152600081816102b4015261041e0152600081816102f1015261034501526114066000f3fe6080604052600436106100a75760003560e01c806353a2c19a1161006457806353a2c19a146101895780636e04ff0d146101b457806391ad27b4146101f2578063c1c244e81461021d578063e55ae4e814610248578063fd6673f514610285576100a7565b806309bc33a7146100ac578063115cbaf5146100d75780631fe543e3146101025780632cfcc5391461012b5780634585e33b14610135578063473f1ddc1461015e575b600080fd5b3480156100b857600080fd5b506100c16102b0565b6040516100ce919061100c565b60405180910390f35b3480156100e357600080fd5b506100ec6102d8565b6040516100f99190610ff1565b60405180910390f35b34801561010e57600080fd5b5061012960048036038101906101249190610de5565b6102ef565b005b6101336103af565b005b34801561014157600080fd5b5061015c60048036038101906101579190610cf5565b61051e565b005b34801561016a57600080fd5b50610173610724565b6040516101809190610f2a565b60405180910390f35b34801561019557600080fd5b5061019e61074e565b6040516101ab919061100c565b60405180910390f35b3480156101c057600080fd5b506101db60048036038101906101d69190610d42565b61075d565b6040516101e9929190610f6e565b60405180910390f35b3480156101fe57600080fd5b5061020761080a565b604051610214919061100c565b60405180910390f35b34801561022957600080fd5b50610232610832565b60405161023f919061100c565b60405180910390f35b34801561025457600080fd5b5061026f600480360381019061026a9190610d8b565b61083c565b60405161027c9190610f2a565b60405180910390f35b34801561029157600080fd5b5061029a610883565b6040516102a7919061100c565b60405180910390f35b60007f0000000000000000000000000000000000000000000000000000000000000000905090565b6000600160149054906101000a900460ff16905090565b7f000000000000000000000000000000000000000000000000000000000000000073ffffffffffffffffffffffffffffffffffffffff163373ffffffffffffffffffffffffffffffffffffffff16146103a157337f00000000000000000000000000000000000000000000000000000000000000006040517f1cf993f4000000000000000000000000000000000000000000000000000000008152600401610398929190610f45565b60405180910390fd5b6103ab828261088f565b5050565b600060018111156103c3576103c26112e6565b5b600160149054906101000a900460ff1660018111156103e5576103e46112e6565b5b1461041c576040517f1425571c00000000000000000000000000000000000000000000000000000000815260040160405180910390fd5b7f0000000000000000000000000000000000000000000000000000000000000000341015610476576040517fbd4e069500000000000000000000000000000000000000000000000000000000815260040160405180910390fd5b6000339080600181540180825580915050600190039060005260206000200160009091909190916101000a81548173ffffffffffffffffffffffffffffffffffffffff021916908373ffffffffffffffffffffffffffffffffffffffff1602179055503373ffffffffffffffffffffffffffffffffffffffff167f0805e1d667bddb8a95f0f09880cf94f403fb596ce79928d9f29b74203ba284d460405160405180910390a2565b60006105386040518060200160405280600081525061075d565b509050806105a75747600080549050600160149054906101000a900460ff166001811115610569576105686112e6565b5b6040517f584327aa00000000000000000000000000000000000000000000000000000000815260040161059e93929190611027565b60405180910390fd5b4260028190555060018060146101000a81548160ff021916908360018111156105d3576105d26112e6565b5b021790555060007f000000000000000000000000000000000000000000000000000000000000000073ffffffffffffffffffffffffffffffffffffffff16635d3b1d307f00000000000000000000000000000000000000000000000000000000000000007f000000000000000000000000000000000000000000000000000000000000000060037f000000000000000000000000000000000000000000000000000000000000000060016040518663ffffffff1660e01b815260040161069d959493929190610f9e565b602060405180830381600087803b1580156106b757600080fd5b505af11580156106cb573d6000803e3d6000fd5b505050506040513d601f19601f820116820180604052508101906106ef9190610db8565b9050807fcd6e45c8998311cab7e9d4385596cac867e20a0587194b954fa3a731c93ce78b60405160405180910390a250505050565b6000600160009054906101000a900473ffffffffffffffffffffffffffffffffffffffff16905090565b6000600163ffffffff16905090565b600060606000600160149054906101000a900460ff166001811115610785576107846112e6565b5b60006001811115610799576107986112e6565b5b1490506000806000805490501190506000804711905060007f0000000000000000000000000000000000000000000000000000000000000000600254426107e09190611107565b1190508380156107ed5750825b80156107f65750815b80156107ff5750805b955050505050915091565b60007f0000000000000000000000000000000000000000000000000000000000000000905090565b6000600254905090565b600080828154811061085157610850611315565b5b9060005260206000200160009054906101000a900473ffffffffffffffffffffffffffffffffffffffff169050919050565b60008080549050905090565b60008080549050826000815181106108aa576108a9611315565b5b60200260200101516108bc9190611257565b905060008082815481106108d3576108d2611315565b5b9060005260206000200160009054906101000a900473ffffffffffffffffffffffffffffffffffffffff16905080600160006101000a81548173ffffffffffffffffffffffffffffffffffffffff021916908373ffffffffffffffffffffffffffffffffffffffff1602179055506000600160146101000a81548160ff02191690836001811115610967576109666112e6565b5b0217905550600067ffffffffffffffff81111561098757610986611344565b5b6040519080825280602002602001820160405280156109b55781602001602082028036833780820191505090505b50600090805190602001906109cb929190610ac0565b504260028190555060008173ffffffffffffffffffffffffffffffffffffffff16476040516109f990610f15565b60006040518083038185875af1925050503d8060008114610a36576040519150601f19603f3d011682016040523d82523d6000602084013e610a3b565b606091505b5050905080610a76576040517fa1d04b3900000000000000000000000000000000000000000000000000000000815260040160405180910390fd5b8173ffffffffffffffffffffffffffffffffffffffff167f5b690ec4a06fe979403046eaeea5b3ce38524683c3001f662c8b5a829632f7df60405160405180910390a25050505050565b828054828255906000526020600020908101928215610b39579160200282015b82811115610b385782518260006101000a81548173ffffffffffffffffffffffffffffffffffffffff021916908373ffffffffffffffffffffffffffffffffffffffff16021790555091602001919060010190610ae0565b5b509050610b469190610b4a565b5090565b5b80821115610b63576000816000905550600101610b4b565b5090565b6000610b7a610b7584611083565b61105e565b90508083825260208201905082856020860282011115610b9d57610b9c61137d565b5b60005b85811015610bcd5781610bb38882610ccb565b845260208401935060208301925050600181019050610ba0565b5050509392505050565b6000610bea610be5846110af565b61105e565b905082815260208101848484011115610c0657610c05611382565b5b610c118482856111e4565b509392505050565b600082601f830112610c2e57610c2d611378565b5b8135610c3e848260208601610b67565b91505092915050565b60008083601f840112610c5d57610c5c611378565b5b8235905067ffffffffffffffff811115610c7a57610c79611373565b5b602083019150836001820283011115610c9657610c9561137d565b5b9250929050565b600082601f830112610cb257610cb1611378565b5b8135610cc2848260208601610bd7565b91505092915050565b600081359050610cda816113b9565b92915050565b600081519050610cef816113b9565b92915050565b60008060208385031215610d0c57610d0b61138c565b5b600083013567ffffffffffffffff811115610d2a57610d29611387565b5b610d3685828601610c47565b92509250509250929050565b600060208284031215610d5857610d5761138c565b5b600082013567ffffffffffffffff811115610d7657610d75611387565b5b610d8284828501610c9d565b91505092915050565b600060208284031215610da157610da061138c565b5b6000610daf84828501610ccb565b91505092915050565b600060208284031215610dce57610dcd61138c565b5b6000610ddc84828501610ce0565b91505092915050565b60008060408385031215610dfc57610dfb61138c565b5b6000610e0a85828601610ccb565b925050602083013567ffffffffffffffff811115610e2b57610e2a611387565b5b610e3785828601610c19565b9150509250929050565b610e4a8161113b565b82525050565b610e598161114d565b82525050565b610e6881611159565b82525050565b6000610e79826110e0565b610e8381856110eb565b9350610e938185602086016111f3565b610e9c81611391565b840191505092915050565b610eb0816111d2565b82525050565b6000610ec36000836110fc565b9150610ece826113a2565b600082019050919050565b610ee281611176565b82525050565b610ef1816111a4565b82525050565b610f00816111ae565b82525050565b610f0f816111be565b82525050565b6000610f2082610eb6565b9150819050919050565b6000602082019050610f3f6000830184610e41565b92915050565b6000604082019050610f5a6000830185610e41565b610f676020830184610e41565b9392505050565b6000604082019050610f836000830185610e50565b8181036020830152610f958184610e6e565b90509392505050565b600060a082019050610fb36000830188610e5f565b610fc06020830187610f06565b610fcd6040830186610ed9565b610fda6060830185610ef7565b610fe76080830184610ef7565b9695505050505050565b60006020820190506110066000830184610ea7565b92915050565b60006020820190506110216000830184610ee8565b92915050565b600060608201905061103c6000830186610ee8565b6110496020830185610ee8565b6110566040830184610ee8565b949350505050565b6000611068611079565b90506110748282611226565b919050565b6000604051905090565b600067ffffffffffffffff82111561109e5761109d611344565b5b602082029050602081019050919050565b600067ffffffffffffffff8211156110ca576110c9611344565b5b6110d382611391565b9050602081019050919050565b600081519050919050565b600082825260208201905092915050565b600081905092915050565b6000611112826111a4565b915061111d836111a4565b9250828210156111305761112f611288565b5b828203905092915050565b600061114682611184565b9050919050565b60008115159050919050565b6000819050919050565b6000819050611171826113a5565b919050565b600061ffff82169050919050565b600073ffffffffffffffffffffffffffffffffffffffff82169050919050565b6000819050919050565b600063ffffffff82169050919050565b600067ffffffffffffffff82169050919050565b60006111dd82611163565b9050919050565b82818337600083830152505050565b60005b838110156112115780820151818401526020810190506111f6565b83811115611220576000848401525b50505050565b61122f82611391565b810181811067ffffffffffffffff8211171561124e5761124d611344565b5b80604052505050565b6000611262826111a4565b915061126d836111a4565b92508261127d5761127c6112b7565b5b828206905092915050565b7f4e487b7100000000000000000000000000000000000000000000000000000000600052601160045260246000fd5b7f4e487b7100000000000000000000000000000000000000000000000000000000600052601260045260246000fd5b7f4e487b7100000000000000000000000000000000000000000000000000000000600052602160045260246000fd5b7f4e487b7100000000000000000000000000000000000000000000000000000000600052603260045260246000fd5b7f4e487b7100000000000000000000000000000000000000000000000000000000600052604160045260246000fd5b600080fd5b600080fd5b600080fd5b600080fd5b600080fd5b600080fd5b6000601f19601f8301169050919050565b50565b600281106113b6576113b56112e6565b5b50565b6113c2816111a4565b81146113cd57600080fd5b5056fea2646970667358221220e9222deca4f70049bdf1f5b529b11058274981fcfaa7666a8a90935aef6e9f0d64736f6c63430008070033",
  "devdoc": {
    "kind": "dev",
    "methods": {},
    "version": 1
  },
  "userdoc": {
    "kind": "user",
    "methods": {
      "constructor": {
        "notice": "HARDCODED FOR SEPOLIA COORDINATOR: 0x8103B0A8A00be2DDC778e6e7eaa21791Cd364625"
      }
    },
    "version": 1
  },
  "storageLayout": {
    "storage": [
      {
        "astId": 250,
        "contract": "contracts/Raffle.sol:Raffle",
        "label": "s_players",
        "offset": 0,
        "slot": "0",
        "type": "t_array(t_address_payable)dyn_storage"
      },
      {
        "astId": 267,
        "contract": "contracts/Raffle.sol:Raffle",
        "label": "s_recentWinner",
        "offset": 0,
        "slot": "1",
        "type": "t_address"
      },
      {
        "astId": 270,
        "contract": "contracts/Raffle.sol:Raffle",
        "label": "s_raffleState",
        "offset": 20,
        "slot": "1",
        "type": "t_enum(RaffleState)245"
      },
      {
        "astId": 272,
        "contract": "contracts/Raffle.sol:Raffle",
        "label": "s_lastTimeStamp",
        "offset": 0,
        "slot": "2",
        "type": "t_uint256"
      }
    ],
    "types": {
      "t_address": {
        "encoding": "inplace",
        "label": "address",
        "numberOfBytes": "20"
      },
      "t_address_payable": {
        "encoding": "inplace",
        "label": "address payable",
        "numberOfBytes": "20"
      },
      "t_array(t_address_payable)dyn_storage": {
        "base": "t_address_payable",
        "encoding": "dynamic_array",
        "label": "address payable[]",
        "numberOfBytes": "32"
      },
      "t_enum(RaffleState)245": {
        "encoding": "inplace",
        "label": "enum Raffle.RaffleState",
        "numberOfBytes": "1"
      },
      "t_uint256": {
        "encoding": "inplace",
        "label": "uint256",
        "numberOfBytes": "32"
      }
    }
  }
}